{
  "contractName": "Dinsta",
  "abi": [
    {
      "inputs": [],
      "payable": false,
      "stateMutability": "nonpayable",
      "type": "constructor"
    },
    {
      "anonymous": false,
      "inputs": [
        {
          "indexed": false,
          "internalType": "uint256",
          "name": "id",
          "type": "uint256"
        },
        {
          "indexed": false,
          "internalType": "string",
          "name": "name",
          "type": "string"
        },
        {
          "indexed": false,
          "internalType": "string",
          "name": "hass",
          "type": "string"
        },
        {
          "indexed": false,
          "internalType": "uint256",
          "name": "totaltip",
          "type": "uint256"
        },
        {
          "indexed": false,
          "internalType": "address payable",
          "name": "owner",
          "type": "address"
        }
      ],
      "name": "imageCreated",
      "type": "event"
    },
    {
      "anonymous": false,
      "inputs": [
        {
          "indexed": false,
          "internalType": "uint256",
          "name": "id",
          "type": "uint256"
        },
        {
          "indexed": false,
          "internalType": "string",
          "name": "name",
          "type": "string"
        },
        {
          "indexed": false,
          "internalType": "string",
          "name": "hass",
          "type": "string"
        },
        {
          "indexed": false,
          "internalType": "uint256",
          "name": "totaltip",
          "type": "uint256"
        },
        {
          "indexed": false,
          "internalType": "address payable",
          "name": "owner",
          "type": "address"
        }
      ],
      "name": "imageTipped",
      "type": "event"
    },
    {
      "constant": true,
      "inputs": [
        {
          "internalType": "uint256",
          "name": "",
          "type": "uint256"
        }
      ],
      "name": "Images",
      "outputs": [
        {
          "internalType": "uint256",
          "name": "id",
          "type": "uint256"
        },
        {
          "internalType": "string",
          "name": "name",
          "type": "string"
        },
        {
          "internalType": "string",
          "name": "hass",
          "type": "string"
        },
        {
          "internalType": "uint256",
          "name": "totaltip",
          "type": "uint256"
        },
        {
          "internalType": "address payable",
          "name": "owner",
          "type": "address"
        }
      ],
      "payable": false,
      "stateMutability": "view",
      "type": "function"
    },
    {
      "constant": true,
      "inputs": [],
      "name": "count",
      "outputs": [
        {
          "internalType": "uint256",
          "name": "",
          "type": "uint256"
        }
      ],
      "payable": false,
      "stateMutability": "view",
      "type": "function"
    },
    {
      "constant": false,
      "inputs": [
        {
          "internalType": "string",
          "name": "n",
          "type": "string"
        },
        {
          "internalType": "string",
          "name": "h",
          "type": "string"
        }
      ],
      "name": "addimage",
      "outputs": [],
      "payable": false,
      "stateMutability": "nonpayable",
      "type": "function"
    },
    {
      "constant": false,
      "inputs": [
        {
          "internalType": "uint256",
          "name": "id",
          "type": "uint256"
        }
      ],
      "name": "tipimage",
      "outputs": [],
      "payable": true,
      "stateMutability": "payable",
      "type": "function"
    }
  ],
  "bytecode": "0x608060405234801561001057600080fd5b5060008081905550610d18806100276000396000f3fe60806040526004361061003f5760003560e01c806306661abd14610044578063213edd5e1461006f578063a523a84a146101ce578063d2f550bf146101fc575b600080fd5b34801561005057600080fd5b5061005961035d565b6040518082815260200191505060405180910390f35b34801561007b57600080fd5b506101cc6004803603604081101561009257600080fd5b81019080803590602001906401000000008111156100af57600080fd5b8201836020820111156100c157600080fd5b803590602001918460018302840111640100000000831117156100e357600080fd5b91908080601f016020809104026020016040519081016040528093929190818152602001838380828437600081840152601f19601f8201169050808301925050505050505091929192908035906020019064010000000081111561014657600080fd5b82018360208201111561015857600080fd5b8035906020019184600183028401116401000000008311171561017a57600080fd5b91908080601f016020809104026020016040519081016040528093929190818152602001838380828437600081840152601f19601f820116905080830192505050505050509192919290505050610363565b005b6101fa600480360360208110156101e457600080fd5b81019080803590602001909291905050506105d1565b005b34801561020857600080fd5b506102356004803603602081101561021f57600080fd5b8101908080359060200190929190505050610a73565b6040518086815260200180602001806020018581526020018473ffffffffffffffffffffffffffffffffffffffff1673ffffffffffffffffffffffffffffffffffffffff168152602001838103835287818151815260200191508051906020019080838360005b838110156102b757808201518184015260208101905061029c565b50505050905090810190601f1680156102e45780820380516001836020036101000a031916815260200191505b50838103825286818151815260200191508051906020019080838360005b8381101561031d578082015181840152602081019050610302565b50505050905090810190601f16801561034a5780820380516001836020036101000a031916815260200191505b5097505050505050505060405180910390f35b60005481565b600082511415801561037757506000815114155b61038057600080fd5b60008081548092919060010191905055506040518060a001604052806000548152602001838152602001828152602001600081526020013373ffffffffffffffffffffffffffffffffffffffff16815250600160008054815260200190815260200160002060008201518160000155602082015181600101908051906020019061040b929190610bf9565b506040820151816002019080519060200190610428929190610bf9565b506060820151816003015560808201518160040160006101000a81548173ffffffffffffffffffffffffffffffffffffffff021916908373ffffffffffffffffffffffffffffffffffffffff1602179055509050507f70d47df7a661222c5c788ac0dcbb2db07ab5c28cfdf0e714255e3fe2c3bf800160005483836000336040518086815260200180602001806020018581526020018473ffffffffffffffffffffffffffffffffffffffff1673ffffffffffffffffffffffffffffffffffffffff168152602001838103835287818151815260200191508051906020019080838360005b8381101561052857808201518184015260208101905061050d565b50505050905090810190601f1680156105555780820380516001836020036101000a031916815260200191505b50838103825286818151815260200191508051906020019080838360005b8381101561058e578082015181840152602081019050610573565b50505050905090810190601f1680156105bb5780820380516001836020036101000a031916815260200191505b5097505050505050505060405180910390a15050565b6000811180156105e357506000548111155b6105ec57600080fd5b6105f4610c79565b600160008381526020019081526020016000206040518060a001604052908160008201548152602001600182018054600181600116156101000203166002900480601f0160208091040260200160405190810160405280929190818152602001828054600181600116156101000203166002900480156106b55780601f1061068a576101008083540402835291602001916106b5565b820191906000526020600020905b81548152906001019060200180831161069857829003601f168201915b50505050508152602001600282018054600181600116156101000203166002900480601f0160208091040260200160405190810160405280929190818152602001828054600181600116156101000203166002900480156107575780601f1061072c57610100808354040283529160200191610757565b820191906000526020600020905b81548152906001019060200180831161073a57829003601f168201915b50505050508152602001600382015481526020016004820160009054906101000a900473ffffffffffffffffffffffffffffffffffffffff1673ffffffffffffffffffffffffffffffffffffffff1673ffffffffffffffffffffffffffffffffffffffff168152505090506000341180156108025750806080015173ffffffffffffffffffffffffffffffffffffffff163373ffffffffffffffffffffffffffffffffffffffff1614155b61080b57600080fd5b34816060015101816060018181525050806080015173ffffffffffffffffffffffffffffffffffffffff166108fc349081150290604051600060405180830381858888f19350505050158015610865573d6000803e3d6000fd5b5080600160008481526020019081526020016000206000820151816000015560208201518160010190805190602001906108a0929190610bf9565b5060408201518160020190805190602001906108bd929190610bf9565b506060820151816003015560808201518160040160006101000a81548173ffffffffffffffffffffffffffffffffffffffff021916908373ffffffffffffffffffffffffffffffffffffffff1602179055509050507f5c20cfaffa936655cab167084939be37f2cd3d0f8897b567a90d70dea3e4c3068282602001518360400151846060015185608001516040518086815260200180602001806020018581526020018473ffffffffffffffffffffffffffffffffffffffff1673ffffffffffffffffffffffffffffffffffffffff168152602001838103835287818151815260200191508051906020019080838360005b838110156109ca5780820151818401526020810190506109af565b50505050905090810190601f1680156109f75780820380516001836020036101000a031916815260200191505b50838103825286818151815260200191508051906020019080838360005b83811015610a30578082015181840152602081019050610a15565b50505050905090810190601f168015610a5d5780820380516001836020036101000a031916815260200191505b5097505050505050505060405180910390a15050565b6001602052806000526040600020600091509050806000015490806001018054600181600116156101000203166002900480601f016020809104026020016040519081016040528092919081815260200182805460018160011615610100020316600290048015610b255780601f10610afa57610100808354040283529160200191610b25565b820191906000526020600020905b815481529060010190602001808311610b0857829003601f168201915b505050505090806002018054600181600116156101000203166002900480601f016020809104026020016040519081016040528092919081815260200182805460018160011615610100020316600290048015610bc35780601f10610b9857610100808354040283529160200191610bc3565b820191906000526020600020905b815481529060010190602001808311610ba657829003601f168201915b5050505050908060030154908060040160009054906101000a900473ffffffffffffffffffffffffffffffffffffffff16905085565b828054600181600116156101000203166002900490600052602060002090601f016020900481019282601f10610c3a57805160ff1916838001178555610c68565b82800160010185558215610c68579182015b82811115610c67578251825591602001919060010190610c4c565b5b509050610c759190610cbe565b5090565b6040518060a0016040528060008152602001606081526020016060815260200160008152602001600073ffffffffffffffffffffffffffffffffffffffff1681525090565b610ce091905b80821115610cdc576000816000905550600101610cc4565b5090565b9056fea265627a7a72315820ef922e75cd1fb2ffe6539e4de7c15f8a196eb9b4deb771df89156ecdfb66dc9d64736f6c63430005100032",
  "source": "pragma solidity ^0.5.16;\r\n\r\ncontract Dinsta\r\n{\r\n    uint public count;\r\n\r\n    struct image{\r\n        uint id;\r\n        string name;\r\n        string hass;\r\n        uint totaltip;\r\n        address payable owner;\r\n    }\r\n\r\n    mapping(uint=>image) public Images;\r\n\r\n    event imageCreated(uint id,string name,string hass,uint totaltip,address payable owner);\r\n    event imageTipped(uint id,string name,string hass,uint totaltip,address payable owner);\r\n    constructor() public{\r\n        count=0;\r\n    }\r\n\r\n    function addimage(string memory n,string memory h) public\r\n    {\r\n        require(bytes(n).length!=0 && bytes(h).length!=0);\r\n        count++;\r\n        Images[count]=image(count,n,h,0,msg.sender);\r\n        emit imageCreated(count,n,h,0,msg.sender);\r\n    }\r\n\r\n    function tipimage(uint id) public payable\r\n    {\r\n        require(id>0 && id<=count);\r\n        image memory Image=Images[id];\r\n        require(msg.value>0 && msg.sender!=Image.owner);\r\n        Image.totaltip=Image.totaltip+msg.value;\r\n        address(Image.owner).transfer(msg.value);\r\n        Images[id]=Image;\r\n        emit imageTipped(id,Image.name,Image.hass,Image.totaltip,Image.owner);\r\n    }\r\n}",
  "sourcePath": "C:/Users/amianshuman/Desktop/blockchain/EthereumCLone-Dapp-IPFS/src/contracts/Dinsta.sol",
  "compiler": {
    "name": "solc",
    "version": "0.5.16+commit.9c3226ce.Emscripten.clang"
  },
  "schemaVersion": "3.2.3",
  "updatedAt": "2021-05-24T22:48:03.180Z",
  "networkType": "ethereum",
  "devdoc": {
    "methods": {}
  },
  "userdoc": {
    "methods": {}
  }
}